:020000040800F2
:10000000D0480020E5010008B1310008B3310008F4
:10001000B7310008BB310008BF3100080000000004
:100020000000000000000000000000004501000882
:10003000C331000800000000890100088183000826
:10004000FF010008FF010008FF010008FF01000890
:10005000FF010008FF010008FF010008FF01000880
:10006000FF010008FF010008FF010008FF01000870
:10007000FF010008FF010008FF0100087B8F000856
:10008000FF010008FF010008FF010008FF01000850
:10009000FF010008FF010008FF010008FF01000840
:1000A000FF010008D18E0008FF010008F18E000852
:1000B000FF010008FF010008FF010008FF01000820
:1000C000FF010008FF010008FF010008FF01000810
:1000D000FF010008FF010008FF010008FF01000800
:1000E000FF010008FF010008FF010008FF010008F0
:1000F000FF010008FF010008FF010008FF010008E0
:10010000FF010008FF010008FF010008FF010008CF
:10011000FF010008FF010008FF010008FF010008BF
:10012000FF010008FF010008FF010008FF010008AF
:10013000DFF80CD009F0E0FB004800475931000817
:10014000D0480020224B19680868B0E8F00F80F30F
:100150000988BFF36F8F4FF0000080F311884EF0D5
:100160000D0E70470000000006480068006880F32C
:10017000088862B661B6BFF34F8FBFF36F8F00DFA1
:1001800000BF00BF08ED00E0EFF30980BFF36F8F01
:100190000F4B1A6820E9F00F106008B54FF05000BF
:1001A00080F31188BFF34F8FBFF36F8F04F0E5FA30
:1001B0004FF0000080F31188BDE808401968086816
:1001C000B0E8F00F80F30988BFF36F8F704700BF6E
:1001D00028000020EFF305807047000080F30888B6
:1001E000704700000648804706480047FEE7FEE7E4
:1001F000FEE7FEE7FEE7FEE7FEE7FEE7FEE7FEE7D7
:10020000E7020008310100080CB5002001900090C1
:100210006C48006840F480306A49086000BF694853
:10022000006800F4003000900198401C0190009894
:1002300018B90198B0F5A06FF1D16248006800F4D8
:10024000003010B10120009001E0002000900098E3
:10025000012843D15C48006840F010005A4908600A
:100260000846006820F0030008600846006840F077
:100270000200086053484068524948600846406898
:1002800048600846406840F480604860084640681E
:1002900020F47C1048600846406840F4E81048604C
:1002A0000846006840F08070086000BF454800685C
:1002B00000F000700028F9D04248406820F00300A8
:1002C000404948600846406840F00200486000BF6E
:1002D0003C48406800F00C000828F9D10CBD10B56E
:1002E000FFF792FF10BD10B53648006840F00100DE
:1002F000344908600846406834490840314948603C
:1003000008460068324908402E49086008460068DF
:1003100020F4802008600846406820F4FE00486011
:100320004FF41F008860FFF7DAFF4FF000602949A3
:10033000086010BD10B5002100200022214B5B6831
:1003400003F00C0121B1042906D0082928D107E0C7
:10035000214B224C236027E01F4B204C236023E0DD
:10036000184B5B6803F47010164B5B6803F4803223
:10037000022303EB904022B9194B4343174C2360EF
:100380000DE0104B5B6803F4003323B1144B43437F
:10039000124C236003E0104B4343104C236003E0F6
:1003A0000D4B0E4C236000BF00BF064B5B68C3F3D0
:1003B00003130C4CE15C094B1B68CB40074C2360DA
:1003C00010BD000000100240002002400000FFF8B5
:1003D000FFFFF6FE08ED00E000127A0000000020AA
:1003E00000093D000400002031490143314A1160F9
:1003F000704770B5002100230F22C47804B32D4C40
:10040000246804F4E064C4F5E064210AC1F1040343
:10041000CA40447804FA03F1847814402143090166
:10042000254C0678A155047804F01F050124AC4042
:1004300005786D11AD0005F1E025C5F8004109E032
:10044000047804F01F050124AC401C4D0678761199
:1004500045F8264070BD1A4A0A400243154B1B1F3F
:100460001A60704739B1134A121D12680243114BCA
:100470001B1D1A6006E00F4A121D126882430D4BC5
:100480001B1D1A607047042808D14FF0E02109694C
:1004900041F004014FF0E022116107E04FF0E0214C
:1004A000096921F004014FF0E0221161704700005A
:1004B0000000FA050CED00E000E400E080E100E05F
:1004C00080FFFF1F10B50446FA48844208D101217D
:1004D000401501F05FFB0021601501F05BFB17E0A8
:1004E000F548844208D10121001501F053FB002199
:1004F000201501F04FFB0BE0F048844208D10121A8
:10050000C80301F047FB00214FF4004001F042FB1B
:1005100010BD30B50246002000235068E84C204052
:100520000D790C6844EA0524204350609068E54C3E
:100530002040D1E902542C434D7944EA450420433C
:100540009060D06A20F470000C7C641EE4B22343F7
:1005500040EA0350D06230BD002101600171417159
:100560008160C16001210174704721B1826842F04D
:100570000102826003E0826822F00102826070471B
:1005800021B1826842F48072826003E0826822F4C2
:1005900080728260704710B50023CBB21AB14468F4
:1005A0001C43446002E044689C43446010BD816881
:1005B00041F0080181607047014600208A6802F01E
:1005C00008020AB1012000E000207047816841F074
:1005D000040181607047014600208A6802F004022D
:1005E0000AB1012000E00020704721B1826842F486
:1005F000A002826003E0826822F4A0028260704759
:10060000014600208A6802F480020AB1012000E05D
:100610000020704710B50A4600210023416821F4EC
:100620006041531E41EA4331416010BD21B142682F
:1006300042F40062426003E0426822F400624260D9
:100640007047F0B504460D4600200021092D11DD4C
:10065000E068A5F10A0606EB4607072606FA07F149
:100660008843A5F10A0606EB460603FA06F108439D
:10067000E0600CE0206905EB4507072606FA07F164
:10068000884305EB450603FA06F108432061072A73
:100690000FDA606B561E06EB86071F2606FA07F177
:1006A0008843561E06EB860605FA06F1084360638A
:1006B00022E00D2A0FDA206BD61F06EB86071F26D5
:1006C00006FA07F18843D61F06EB860605FA06F1FF
:1006D0000843206310E0E06AA2F10D0606EB8607EE
:1006E0001F2606FA07F18843A2F10D0606EB8606DF
:1006F00005FA06F10843E062F0BD21B1826842F4D8
:100700008012826003E0826822F480128260704767
:100710000146C86C80B2704766484C30006870472C
:1007200021B1426842F48062426003E0426822F4F0
:1007300080624260704721B1426842F48052426058
:1007400003E0426822F48052426070470A4600216A
:10075000816821F4E04111438160704721B18268D2
:1007600042F40042826003E0826822F40042826028
:10077000704721B1826842F40212826003E082680D
:1007800022F4021282607047014600208A6802F457
:1007900000120AB1012000E000207047F0B50446C5
:1007A0001546002000220026092911DDE068A1F18C
:1007B0000A0707EB470C072707FA0CF29043A1F151
:1007C0000A0707EB470703FA07F21043E0600CE063
:1007D000206901EB410C072707FA0CF2904301EB6B
:1007E000410703FA07F210432061A06BC0F30156E2
:1007F000EF1C06F1010CA7EB0C0707EB870C1F277A
:1008000007FA0CF29043EF1C06F1010CA7EB0C0762
:1008100007EB870701FA07F21043A063F0BD10B59C
:100820000A4600210023816B21F44011531E41EA46
:100830000351816310BD08B5002300930090009B15
:100840000B440093009B1A6008BD08B502460020C7
:100850000090009201F12800009B1844009000983D
:10086000006880B208BD0A4600214168164B194055
:100870001143416070474162826270470A4600211D
:10088000416821F01F0111434160704740B109499F
:100890000831096841F40001064A0832116007E096
:1008A00004490831096821F40001024A0832116044
:1008B000704700000024014000280140003C014036
:1008C000FFFEF0FFFDF7F1FFFFFD3FFF02460020B6
:1008D00013680B400BB1012000E000207047CA43B1
:1008E0000260704770B502460020002300240B12FE
:1008F0005568CEB205EA060415681D4015B10CB165
:10090000012000E0002070BD00220A12D3430360E2
:100910007047000001684FF6FE721140016000212F
:10092000016041608160C1608D49884208D18C4975
:100930000839496841F00F01894A083A51608AE054
:1009400087491431884208D185490839496841F0FE
:10095000F001834A083A51607DE08149283188429C
:1009600008D17F490839496841F470617C4A083AE6
:10097000516070E07A493C31884208D178490839A1
:10098000496841F47041764A083A516063E074491D
:100990005031884208D172490839496841F47021C0
:1009A0006F4A083A516056E06D496431884208D177
:1009B0006B490839496841F47001694A083A516045
:1009C00049E067497831884208D165490839496862
:1009D00041F07061624A083A51603CE061498842E6
:1009E00006D1011F096841F00F01021F116032E0BA
:1009F0005C491431884208D15A49091F096841F0FD
:100A0000F001584A121F116025E0564928318842EA
:100A100008D15449091F096841F47061514A121FF5
:100A2000116018E04F493C31884208D14D49091FF7
:100A3000096841F470414B4A121F11600BE04949AB
:100A40005031884207D14749091F096841F4702194
:100A5000444A121F1160704710B50022026847F621
:100A6000F0739A430C6A8B6823430C6923434C69E7
:100A700023438C692343CC6923434C6A23438C6A08
:100A800023431A430260CB6843600B6883604B6862
:100A9000C36010BD0021016041608160C1600161DF
:100AA00041618161C161016241628162704721B12E
:100AB000026842F00102026004E002684FF6FE7331
:100AC0001A40026070471AB103680B43036002E0EA
:100AD00003688B4303607047416070470146486874
:100AE00080B2704701460020002201F080531BB104
:100AF0001C4B083B1A6802E0194B083B1A6802EAD3
:100B000001030BB1012000E00020704700F080518C
:100B100019B11449091F086002E0114908394860F9
:100B2000704701460020002201F080531BB10D4B9D
:100B3000083B1A6802E00A4B083B1A6802EA010304
:100B40000BB1012000E00020704700F0805119B186
:100B50000449091F086002E00149083948607047EC
:100B6000080002400804024001460020FE4A1068C6
:100B700000F03800084310607047FB49096821F015
:100B80000801F94A11601146096801431160704774
:100B9000F549096821F01001F34A1160114609680E
:100BA000014311607047F148EF494860F0484860E0
:100BB0007047EE48EC494860ED4848607047EA48A5
:100BC000006940F08000E84908617047E648006924
:100BD00040F08000E449086170470420E249C96898
:100BE00001F0010109B101200EE0DF49C96801F0FF
:100BF000040109B1022007E0DB49C96801F01001D6
:100C000009B1032000E00420704700B50246042328
:100C1000FFF7E3FF034603E0FFF7DFFF0346521E43
:100C2000012B01D1002AF7D102B90523184600BDD6
:100C300030B5044604254FF43020FFF7E6FF0546A3
:100C4000042D17D1C848006940F00200C649086168
:100C500008464461006940F0400008614FF43020CC
:100C6000FFF7D3FF0546C048006941F6FD71084013
:100C7000BD490861284630BD10B504244FF430202A
:100C8000FFF7C3FF0446042C16D1B748006940F0B3
:100C90000400B54908610846006940F04000086159
:100CA0004FF43020FFF7B1FF0446AF48006941F62A
:100CB000FB710840AC490861204610BD00B50246F2
:100CC0000423FFF78AFF034603E0FFF786FF03468E
:100CD000521E012B01D1002AF7D102B90523184673
:100CE00000BD10B504244FF43020FFF7E7FF0446A1
:100CF000042C16D19C48006940F004009A49086110
:100D00000846006940F0400008614FF43020FFF7CA
:100D1000D5FF04469448006941F6FB7108409249AA
:100D20000861204610BD00208F49C96901F0020109
:100D300009B1012000E00020704730B5A52504244A
:100D4000FFF7F1FF00B100254FF43020FFF75DFF02
:100D50000446042C3AD185488349886084488860D9
:100D60000846006940F0200008610846006940F02C
:100D7000400008614FF43020FFF747FF0446042C81
:100D80001BD17948006941F6DF7108407649086156
:100D90000846006940F01000086176480580E002CE
:100DA000FFF733FF0446052C10D06F48006941F669
:100DB000EF7108406C49086108E0052C06D06A48CC
:100DC000006941F6EF71084067490861204630BD6F
:100DD00078B506460C46042500200090E802FFF78F
:100DE00014FF0546042D24D15F48006940F001003E
:100DF0005D4908613480E802FFF707FF0546042DCE
:100E000010D1B01C0090200C00990880E802FFF778
:100E1000FCFE05465448006941F6FE7108405249FF
:100E2000086106E05048006941F6FE7108404E49ED
:100E30000861284678BD70B504460D460426F002C8
:100E4000FFF7E3FE0646042E11D14748006940F043
:100E50000100454908612580F002FFF7D6FE0646ED
:100E60004148006941F6FE7108403F49086130463B
:100E700070BD70B505460E460424E002FFF7C5FEBE
:100E80000446042C17D139483749886038488860AF
:100E90000846006940F0100008612E80E002FFF76C
:100EA000B4FE0446052C06D02F48006941F6EF71C8
:100EB00008402D490861204670BD2DE9F0430446E5
:100EC0004FF6FF763746B046B1460425E443E6B216
:100ED000C4F30727C4F307484FEA1469E802FFF791
:100EE00094FE0546042D49D120481F4988602048BA
:100EF00088600846006940F010000861FF2E06D0A7
:100F00001C4808300680E802FFF77FFE0546042DE6
:100F100008D1FF2F06D017480A300780E802FFF7F4
:100F200074FE0546042D0AD1B8F1FF0F07D0114811
:100F30000C30A0F80080E802FFF767FE0546042D9C
:100F40000AD1B9F1FF0F07D00A480E30A0F800907F
:100F5000E802FFF75AFE0546052D0FD0024800694A
:100F600041F6EF71084007E0002002402301674589
:100F7000AB89EFCD00F8FF1F664908612846BDE840
:100F8000F08330B5054604244FF43020FFF73DFED2
:100F90000446042C41D160485E4988605F488860FF
:100FA0000846006940F0200008610846006940F0EA
:100FB000400008614FF43020FFF727FE0446042C60
:100FC00022D15448006941F6DF7108405149086157
:100FD0000846006940F0100008611DB1002050492A
:100FE000088002E0A5204E4908804FF43020FFF72A
:100FF0000CFE0446052C10D04648006941F6EF71FE
:1010000008404449086108E0052C06D041480069C1
:1010100041F6DF7108403F490861204630BDF0B518
:1010200005460E46174604243B483A4988603B482B
:101030008860E002FFF7E9FD0446042C19D1354829
:10104000006940F010003349086147F0F800304370
:1010500028433349891C0880E002FFF7D6FD044687
:10106000052C06D02B48006941F6EF71084029494C
:1010700008612046F0BD2748C069800870472548B0
:10108000006A704700202349096801F0200109B176
:10109000012000E00020704729B11E4A1269024376
:1010A0001C4B1A6104E01B4A12698243194B1A61F6
:1010B000704701460020012908D1164AD26902F082
:1010C00001020AB1012008E0002006E0114AD268BE
:1010D0000A400AB1012000E0002070470D49C860B5
:1010E000704704200B49C96801F0010109B10120D2
:1010F0000EE00849C96801F0040109B1022007E0C7
:101100000449C96801F0100109B1032000E004207E
:10111000704700000020024023016745AB89EFCDF6
:1011200000F8FF1F10B50446CC48844208D10121C5
:10113000042000F02FFD0021042000F02BFD46E0EC
:10114000C748844208D10121082000F023FD002176
:10115000082000F01FFD3AE0C248844208D1012176
:10116000102000F017FD0021102000F013FD2EE0EC
:10117000BD48844208D10121202000F00BFD002150
:10118000202000F007FD22E0B848844208D1012168
:10119000402000F0FFFC0021402000F0FBFC16E0A6
:1011A000B348844208D10121802000F0F3FC0021E3
:1011B000802000F0EFFC0AE0AE48844207D1012114
:1011C000801500F0E7FC0021A01500F0E3FC10BD45
:1011D00010B50121084600F0DDFC0021012000F0DF
:1011E000D9FC10BD2DE9F041024600250026002063
:1011F00000230024002791F803C00CF00F0591F89C
:1012000003C00CF0100CBCF1000F03D091F802C029
:101210004CEA050591F800C0BCF1000F31D014680C
:1012200000202BE04FF0010C0CFA00F3B1F800C0E5
:101230000CEA03069E4220D183004FF00F0C0CFAFB
:1012400003F7BC4305FA03FC4CEA040491F803C01D
:10125000BCF1280F06D14FF0010C0CFA00FCC2F8CB
:1012600014C00AE091F803C0BCF1480F05D14FF05B
:10127000010C0CFA00FCC2F810C0401C0828D1D3A5
:101280001460B1F800C0BCF1FF0F34DD54680020D9
:101290002EE000F1080C4FF0010808FA0CF3B1F849
:1012A00000C00CEA03069E4221D183004FF00F0CD0
:1012B0000CFA03F7BC4305FA03FC4CEA040491F86A
:1012C00003C0BCF1280F05D100F1080C08FA0CF896
:1012D000C2F8148091F803C0BCF1480F07D100F1A7
:1012E000080C4FF0010808FA0CF8C2F81080401CF6
:1012F0000828CED35460BDE8F0814FF6FF7101801D
:10130000022181700421C170704702460020936859
:101310000B400BB1012000E00020704701468868B7
:1013200080B2704702460020D3680B400BB1012009
:1013300000E0002070470146C86880B27047016134
:101340007047416170470AB1016100E04161704737
:10135000C16070474FF480320A43826181618261CB
:1013600082698269704702460020434B18684FF635
:101370008073184040EA021008433F4B18607047E2
:101380003E49C8617047F0B50A4600230024002199
:10139000002500F00046B6F1004F02D1364EF1694B
:1013A00001E0354E7168C0F3034583B200F4401686
:1013B000B6F5401F08D121F070612F4E766826F0F7
:1013C00070662D4F7E6012E000F48016B6F5801F27
:1013D00006D1032606FA05F4A14341F0706106E048
:1013E000460D360103FA06F6B14341F0706122B1B1
:1013F000460D360103FA06F6314300F00046B6F119
:10140000004F02D11C4EF16101E01B4E7160F0BD36
:1014100030B500228B071C0F0F2303FA04F2164B82
:1014200008338C1053F824309343134C08348D1038
:1014300044F8253023468C1053F824308C07240FB1
:1014400000FA04F423430C4C08348D1044F8253082
:1014500030BD0A49DC3108607047000000080140D7
:10146000000C014000100140001401400018014030
:10147000001C01400020014000000140000020420B
:1014800010B50446F748844209D10121480500F00F
:101490008EFB00214FF4001000F089FB08E00121D1
:1014A000880500F084FB00214FF4800000F07FFBF2
:1014B00010BD2DE9F04385B004460D460026B14627
:1014C0000427DFF8A483A6884FF6C070064068465C
:1014D00000F0D9FADDF80880E448B8FBF0F01FFA14
:1014E00080F946EA0906A68020884FF6FE7108407A
:1014F00020800026DE49286888420CD828684000F1
:10150000B8FBF0F087B2042F00DA04273E4309F15C
:101510000100208427E0E8884BF6FF71884206D15D
:10152000286800EB4000B8FBF0F087B209E02868BB
:1015300000EBC00101EB0010B8FBF0F087B247F4FC
:101540008047C7F30B0008B947F0010747F4004094
:1015500006434FF4967009FB00F04FF47A7190FB4C
:10156000F1F0401C2084A683208840F001002080F8
:1015700026884FF6F5300640A88869890843064357
:101580002680A88929890843208105B0BDE8F08319
:1015900041F288310160002181804BF6FF71C180EA
:1015A0000021018141814FF480418181704721B147
:1015B000028842F00102028004E002884FF6FE73C6
:1015C0001A400280704721B1828842F40062828012
:1015D00004E082884FF2FF731A408280704721B185
:1015E000828842F48052828004E082884EF6FF7343
:1015F0001A408280704721B1028842F480720280D2
:1016000004E002884FF6FF631A400280704721B160
:10161000028842F40072028004E002884FF6FF5311
:101620001A400280704721B1028842F48062028031
:1016300004E002884FF6FF331A40028070470A46E2
:10164000002181894FF60173194002F0FE0319430E
:101650008181704721B1828942F00102828104E0D8
:1016600082894FF6FE731A408281704721B1028849
:1016700042F04002028004E002884FF6BF731A4035
:10168000028070471AB183880B43838002E083880D
:101690008B4383807047018270470146088AC0B23D
:1016A000704712B141F0010102E04FF6FE7319409C
:1016B0000182704708B50246002000900092009811
:1016C000084400900098008808BD21B1028842F4C7
:1016D0000042028003E00288C2F30E0202807047DB
:1016E000B1F5006F04D1028842F40062028004E088
:1016F00002884FF2FF731A4002807047B1F5005F15
:1017000004D1028842F40052028004E002884DF6BF
:10171000FF731A400280704721B1028842F4805260
:10172000028004E002884EF6FF731A400280704780
:10173000B1F5006F04D1028842F40062028004E037
:1017400002884FF2FF731A400280704721B102886D
:1017500042F02002028004E002884FF6DF731A4054
:10176000028070470146088B0012704721B1028841
:1017700042F01002028004E002884FF6EF731A4034
:101780000280704721B9028842F08002028004E0A2
:1017900002884FF67F731A4002807047B1F5804F80
:1017A00005D0828B4BF6FF731A40828303E0828B55
:1017B00042F480428283704770B5024600240025BF
:1017C00000230020958A138B1B0445EA030626F0AC
:1017D0007F4404EA01068E4201D1012000E000208E
:1017E00070BD10B501460020002300228B8A0A8BB1
:1017F000120443EA020424F07F4010BD0CB50246F7
:10180000002000230193009300920B0F019321F01D
:101810007F41019B1BB1009B1433009303E0090C33
:10182000009B18330093009B1B680B400BB10120F9
:1018300000E000200CBD002221F07F42D3438382D0
:10184000704730B5024600200023948801F0E0651F
:1018500004EA154321F07F41948A0C4054B14BB106
:10186000012008E00054004000127A0040420F00BE
:10187000A0860100002030BD002221F07F42D3432A
:1018800083827047DF48006840F00100DD4908604E
:1018900008464068DC490840DA4948600846006864
:1018A000DA490840D74908600846006820F48020DB
:1018B00008600846406820F4FE0048604FF41F00AE
:1018C00088607047CF49096821F48031CD4A1160A2
:1018D0001146096821F480211160B0F5803F03D0E2
:1018E000B0F5802F0ED106E0C649096841F4803179
:1018F000C44A116007E0C349096841F4A021C14A04
:10190000116000E000BF00BF704710B50146002223
:10191000002300204A11012A02D1BA4C236806E0B4
:10192000022A02D1B74C236A01E0B64C636A01F087
:101930001F02012494401C400CB1012000E0002053
:1019400010BD38B5002000900024002500BF3120D4
:10195000FFF7DBFF05460098401C00900098B0F5AB
:10196000A06F01D0002DF2D03120FFF7CEFF08B1DB
:10197000012400E00024204638BD01460020A14A91
:10198000106820F0F80040EAC10010607047A049DC
:1019900008607047024600209A4B586820F47C107B
:1019A00042EA01031843974B58607047984908660C
:1019B000704701460020934A506820F00300084316
:1019C000506070478F48406800F00C007047014637
:1019D00000208C4A506820F0F000084350607047A7
:1019E00001460020874A506820F4E06008435060B8
:1019F000704701460020834A506820F4605040EA56
:101A0000C1005060704729B17E4A527A02437D4B33
:101A10005A7204E07B4A527A82437A4B5A72704778
:101A20007B49D8310860704701460020754A5068EC
:101A300020F440400843506070470021714A203232
:101A40001170704A82F82010012802D004280AD1AF
:101A500004E001216B4A2032117005E00521694A3A
:101A60002032117000E000BF00BF70476949086074
:101A700070476449096A0143624A116270476549C7
:101A800044390860704730B500210022002400234B
:101A90005C4D6D6805F00C0121B1042905D00829C1
:101AA00023D105E05C4D056022E05B4D05601FE041
:101AB000544D6D6805F47012524D6D6805F4803414
:101AC000022505EB92421CB9544D554305600BE0CD
:101AD0004C4D6D6805F400351DB1504D5543056002
:101AE00002E04D4D5543056002E04B4D056000BFDF
:101AF00000BF444D6D6805F0F0010909484D6B5C6D
:101B00000568DD4045603F4D6D6805F4E061090AF8
:101B1000434D6B5C4568DD4085603A4D6D6805F46A
:101B20006051C90A3E4D6B5C4568DD40C560354D6E
:101B30006D6805F44041890B3A4D6B5CC568B5FB97
:101B4000F3F5056130BD29B12E4A526902432D4B90
:101B50005A6104E02B4A526982432A4B5A6170470A
:101B600029B1284A92690243264B9A6104E0254A2A
:101B700092698243234B9A61704729B1214AD26905
:101B80000243204BDA6104E01E4AD26982431D4BB6
:101B9000DA61704729B11B4AD2680243194BDA60F7
:101BA00004E0184AD2688243164BDA60704729B1C4
:101BB000144A12690243134B1A6104E0114A126974
:101BC0008243104B1A6170471249403908607047D0
:101BD0000F49C86470470B49C87170470948406A8B
:101BE00040F0807007494862704701460020054A6E
:101BF00092680A400AB1012000E0002070470149C4
:101C000088727047001002400000FFF8FFFFF6FEE8
:101C1000000042428004424200127A0000093D0066
:101C2000140000202400002010B50446BE48844261
:101C300008D101218014FFF7ADFF0021A014FFF7A8
:101C4000A9FF16E0B948844208D101210014FFF72A
:101C5000AEFF00212014FFF7AAFF0AE0B448844237
:101C600007D10121C013FFF7A2FF0021E013FFF706
:101C70009EFF10BD10B50022028802F441520B886D
:101C80004C8823438C882343CC8823430C892343EB
:101C90004C8923438C892343CC8923431A430280F4
:101CA000838B4FF2FF74234083830B8A038210BD22
:101CB0002DE9F04F85B005460C464FF0000902278C
:101CC0004FF000084FF0010B0026B246A88B4FF2F0
:101CD00040010840A88302202884B5F81C90A06821
:101CE000022801D100BF38E0A08810B94FF0010BE5
:101CF00001E04FF0020B8D48854200D100E000BFAB
:101D00006846FFF7C0FEDDF800A0E088B0F5007F70
:101D10000AD14FEA1A2000EB80004000A168B0FB16
:101D2000F1F0401D86B20BE04FEA4B10BAFBF0F029
:101D300000EB80004000A168B0FBF1F0401D86B2CE
:101D40000A20B6FBF0F606F00108A6EB0800C0F387
:101D50004F074FF6FF7000EA0828022F01DBFF2F24
:101D600002DD02274FF00008E08840EA080038430F
:101D70002884A088A18908436188084321880843F2
:101D800040F4006040EA0909A5F81C9005B0BDE8E0
:101D9000F08F0021018041808180C18001814181DB
:101DA0008181C1810721018270470021018041802A
:101DB0008180C1800221816000218181704721B131
:101DC000028842F04002028004E002884FF6BF73AE
:101DD0001A400280704721B1828B42F48062828374
:101DE00004E0828B4FF6FF331A408283704730B590
:101DF000002400230C110125A540ABB21AB185883F
:101E00001D43858002E085889D43858030BD1AB1E1
:101E100083880B43838002E083888B4383807047F1
:101E2000818170470146888970474FF6FF62914271
:101E300004D0028842F48072028004E002884FF6E7
:101E4000FF631A400280704721B1828842F0040289
:101E5000828004E082884FF6FB731A4082807047CC
:101E600002884FF2FF731A40028002880A43028000
:101E70007047018841F480510180704721B1028888
:101E800042F40052028004E002884DF6FF731A40CB
:101E90000280704702460020012901D0108B00E02B
:101EA000908A70470146088A7047B1F5804F04D187
:101EB000028842F48042028004E002884BF6FF73FD
:101EC0001A40028070470246002013890B400BB174
:101ED000012000E000207047CA4302817047F0B53E
:101EE0000246002000240023002501F00F070126F0
:101EF000BE40B4B20B1101269E40B3B2968806EAEA
:101F000003051689264016B10DB1012000E000201E
:101F1000F0BD10B5002201F00F040123A3409AB2D6
:101F2000D343038110BD0000003001400038004061
:101F3000003C004010B50446FE48844208D101210F
:101F4000C014FFF727FE0021E014FFF723FEC4E0D2
:101F5000B4F1804F08D101210846FFF728FE002187
:101F60000120FFF724FEB8E0F348844208D10121A4
:101F70000220FFF71CFE00210220FFF718FEACE054
:101F8000EE48844208D101210420FFF710FE002111
:101F90000420FFF70CFEA0E0E948844208D10121AB
:101FA0000820FFF704FE00210820FFF700FE94E060
:101FB000E448844208D101211020FFF7F8FD0021F8
:101FC0001020FFF7F4FD88E0DF48844208D10121AA
:101FD0002020FFF7ECFD00212020FFF7E8FD7CE04A
:101FE000DA48844208D101214014FFF7D3FD0021D3
:101FF0006014FFF7CFFD70E0D548844209D101217C
:10200000C804FFF7C7FD00214FF40020FFF7C2FD11
:1020100063E0D048844209D101210805FFF7BAFDE9
:1020200000214FF48010FFF7B5FD56E0CA48844206
:1020300009D101214805FFF7ADFD00214FF4001043
:10204000FFF7A8FD49E0C548844208D1012140209E
:10205000FFF7ADFD00214020FFF7A9FD3DE0C0489E
:10206000844208D101218020FFF7A1FD00218020BA
:10207000FFF79DFD31E0BB48844208D10121801566
:10208000FFF795FD0021A015FFF791FD25E0B6486B
:10209000844209D101210804FFF77CFD00214FF49F
:1020A0008030FFF777FD18E0B048844209D1012164
:1020B0004804FFF76FFD00214FF40030FFF76AFD81
:1020C0000BE0AB48844208D101218804FFF762FD90
:1020D00000214FF48020FFF75DFD10BD0022028833
:1020E000944B98420ED0994B98420BD0B0F1804F50
:1020F00008D0914B984205D0904B984202D0904B1B
:10210000984204D14FF68F731A404B881A438D4B77
:10211000984207D08C4B984204D04FF6FF431A40A8
:10212000CB881A4302808B8883850B880385814B7B
:1021300098420BD0854B984208D08B4B984205D0E3
:102140008A4B984202D08A4B984201D10B7A03867F
:1021500001238382704770B5002400220023058C80
:102160004FF6FE7635400584028C8388048B4FF64B
:102170008F752C40B51E2C400D882C43751E2A40AF
:102180000D892A434D882A436A4DA8420BD06F4DD2
:10219000A84208D0744DA84205D0744DA84202D080
:1021A000734DA84213D14FF6F7752A404D892A4343
:1021B0004FF6FB752A408D882A434FF6FF652B406A
:1021C0004FF6FF552B408D892B43CD892B438380C0
:1021D0000483CD888586028470BD70B500240022FA
:1021E0000023058C4FF6EF7635400584028C8388FA
:1021F000048B48F6FF752C404FF6FF452C400D88A8
:102200004FF6FF7606EA05252C434FF6DF752A4088
:102210000D8906EA05152A434D8806EA05152A4365
:10222000444DA84202D0494DA8421DD14FF67F75BA
:102230002A404D894FF6FF7606EA05152A434FF6E8
:10224000BF752A408D8806EA05152A434FF6FF35EB
:102250002B404FF2FF752B408D8906EA85052B43F5
:10226000CD8906EA85052B4383800483CD880587C5
:10227000028470BD70B5002400220023058C4FF647
:10228000FF6635400584028C8388848B4FF68F75FA
:102290002C404FF6FC752C400D882C434FF6FF5513
:1022A0002A400D894FF6FF7606EA05252A434D8818
:1022B00006EA05252A431F4DA84202D0234DA84215
:1022C0001DD14FF2FF752A404D894FF6FF7606EA81
:1022D00005252A434FF6FF352A408D8806EA052555
:1022E0002A434EF6FF752B404DF6FF752B408D8926
:1022F00006EA05152B43CD8906EA05152B43838095
:102300008483CD888587028470BD70B50022002348
:102310000024058C4EF6FF7635400584038C8488B6
:10232000828B48F6FF752A404FF6FF452A400D88FC
:1023300020E00000002C01400004004000080040A4
:10234000000C004000100040001400400034014028
:10235000004C014000500140005401400018004072
:10236000001C0040002000400040014000440140AB
:10237000004801404FF6FF7606EA05252A434DF650
:10238000FF752B400D8906EA05352B434D8806EA7B
:1023900005352B43FA4DA84202D0FA4DA84208D188
:1023A0004BF6FF752C408D894FF6FF7606EA8515B2
:1023B0002C4384808283CD88A0F84050038470BD74
:1023C000828B4FF2FF331A408283828B4FF6FF736A
:1023D00003EA01231A4382837047F0B50C46154681
:1023E000002200210026078C4EF6FF7C07EA0C072E
:1023F0000784828B018C4FF6FF7707EA043640F69C
:10240000FF473A404FF6FF7707EA05273A434FF672
:10241000FF7707EA03373A43D94FB8420ED0D94F76
:10242000B8420BD0B0F1804F08D0D74FB84205D09A
:10243000D64FB84202D0D64FB84206D14DF6FF77FC
:10244000394046F48057394305E047F6FF57394095
:1024500044F48057394382830184F0BD828B4FF668
:10246000F3731A408283828B0A4382837047F0B5EC
:102470000C461546002200210026078C4FF6FF6C03
:1024800007EA0C070784828B018C4FF6FF7707EA77
:1024900004264FF60C773A404FF6FF7707EA03170A
:1024A0002F433A43B64FB8420ED0B64FB8420BD086
:1024B000B0F1804F08D0B44FB84205D0B34FB84206
:1024C00002D0B34FB84206D14FF6FF57394046F419
:1024D0008077394305E04FF2FF57394044F4807765
:1024E000394382830184F0BD028B4FF2FF331A40DF
:1024F0000283028B4FF6FF7303EA01231A43028320
:102500007047F0B50C461546002200210026078CC6
:102510004FF6EF7C07EA0C070784028B018C4FF61D
:10252000FF7707EA041640F6FF473A404FF6FF7779
:1025300007EA03373A434FF6FF7707EA05273A439E
:102540008F4FB8420ED08F4FB8420BD0B0F1804FB2
:1025500008D08D4FB84205D08C4FB84202D08C4F76
:10256000B84206D14FF6DF77394046F010073943BD
:1025700005E04FF65F77394044F010073943028396
:102580000184F0BD028B4FF6F3731A400283028B75
:102590000A4302837047F0B50C461546002200211D
:1025A000068C4FF6FE773E400684028B018C4FF678
:1025B0000C7632407E1C06EA03162E433243704EE0
:1025C000B0420ED06F4EB0420BD0B0F1804F08D069
:1025D0006D4EB04205D06D4EB04202D06C4EB0424E
:1025E00006D14FF6FD76314044F00106314305E057
:1025F0004FF6F576314044F0010631430283018401
:10260000F0BD70B505460C465D4885420ED05D486C
:1026100085420BD0B5F1804F08D05B48854205D08C
:102620005A48854202D05A48854200D100E000BF96
:10263000208850B92389A28861882846FFF7ABFF1C
:10264000E1882846FFF79EFF25E0208804280AD16C
:102650002389A28861882846FFF753FFE18828462E
:10266000FFF742FF17E0208808280AD12389A288B3
:1026700061882846FFF7FBFEE1882846FFF7EEFE5B
:1026800009E02389A28861882846FFF7A6FEE18831
:102690002846FFF795FE70BD2DE9F04105460C4632
:1026A00000260127608808B9022600E00026A088DD
:1026B000012801D1022700E001272088A0B9238941
:1026C000A28861882846FFF766FFE1882846FFF761
:1026D00059FF23893A4631462846FFF712FFE18821
:1026E0002846FFF701FF13E02389A2886188284666
:1026F000FFF707FFE1882846FFF7F6FE23893A46F1
:1027000031462846FFF747FFE1882846FFF73AFFA2
:10271000BDE8F0810A884B881A438B881A43CB881E
:102720001A430B891A434B891A438B891A43A0F821
:10273000442070474FF6FF71818000210180C180E5
:102740004180017270470021018041808180C180F9
:10275000018141818181C1817047002101804180D7
:10276000012181800021C180018170470021018009
:1027700041808180C1800181418181817047000059
:10278000002C0140003401400004004000080040DB
:10279000000C004021B1028842F00102028004E0F6
:1027A00002884FF6FE731A400280704731B1B0F8CC
:1027B000442042F40042A0F8442005E0B0F8442050
:1027C000C2F30E02A0F8442070471AB183890B436C
:1027D000838102E083898B438381704781827047C4
:1027E00041EA0203A0F8483070471AB183890B43CD
:1027F000838102E083898B438381704701894FF68F
:10280000F8721140018170470A46002101894FF694
:102810008F73194011430181704730B504460D464E
:1028200029462046FFF7F0FF208940F0070020816D
:1028300030BD2DE9F04104460D4616461F46602D79
:1028400006D13B46012231462046FFF75AFE05E0FD
:102850003B46012231462046FFF79DFE2946204691
:10286000FFF7D2FF208940F007002081BDE8F0810A
:1028700030B50C4600210189C9B24FF6FF7505EA53
:102880000325154325432943018130BD2DE9F0413E
:1028900005460E4617469846002443463A463146BA
:1028A0002846FFF7E5FF2C894FF6F870044044F006
:1028B00007044FF68F70044044F070042C81BDE88B
:1028C000F081F0B504460D4616461F463B4632469B
:1028D00029462046FFF7CCFF208940F48040208124
:1028E000F0BD0185828270470A46002101884FF6BB
:1028F0008F731940114301807047F0B50C4615469F
:102900001E460021002200230189028B038C4FF612
:10291000F877394021434FF6FC473A4040F201171F
:102920003A434FF6DD773B404FF6FF7707EA06174D
:102930002F433B43018102830384F0BD0A460021FB
:10294000018B4FF68F7319401143018370470A467C
:102950000021018B48F6FF7319404FF6FF7303EA1D
:1029600002231943018370470A460021818B4FF6E9
:102970008F7319401143818370470A460021818B70
:1029800048F6FF7319404FF6FF7303EA0223194319
:102990008183704721B1028842F08002028004E006
:1029A00002884FF67F731A400280704721B18288F7
:1029B00042F00402828004E082884FF6FB731A40E2
:1029C0008280704721B1828842F00802828004E050
:1029D00082884FF6F7731A408280704721B182884F
:1029E00042F00102828004E082884FF6FE731A40B2
:1029F000828070470A460021018B4FF6F773194019
:102A00001143018370470A460021018B4FF2FF7387
:102A100019404FF6FF7303EA0223194301837047FD
:102A20000A460021818B4FF6F773194011438183C9
:102A300070470A460021818B4FF2FF7319404FF611
:102A4000FF7303EA02231943818370470A4600217A
:102A5000018B4FF6FB7319401143018370470A46FF
:102A60000021018B4FF6FF3319404FF6FF7303EA45
:102A700002231943018370470A460021818B4FF6D8
:102A8000FB7319401143818370470A460021818BF3
:102A90004FF6FF3319404FF6FF7303EA0223194341
:102AA000818370470A460021018B4FF67F731940DE
:102AB0001143018370470A460021018BC1F30E01C7
:102AC0004FF6FF7303EA02231943018370470A4656
:102AD0000021818B4FF67F7319401143818370472A
:102AE0000A460021818BC1F30E014FF6FF7303EA02
:102AF00002231943818370470A460021018C4FF657
:102B0000FD7319401143018470470A460021018C6E
:102B10004FF6F77319401143018470470A460021AC
:102B2000018C4FF6DF7319404FF6FF7303EA02136F
:102B30001943018470470A460021018C4FF67F73C8
:102B400019404FF6FF7303EA0213194301847047DB
:102B50000A460021018C4FF6FF5319404FF6FF73D0
:102B600003EA02231943018470470A460021018CBD
:102B70004FF2FF7319404FF6FF7303EA0223194324
:102B8000018470470A460021018C4DF6FF731940FD
:102B90004FF6FF7303EA023319430184704730B5DF
:102BA000002301248C40A3B2048C9C430484048C35
:102BB00002FA01F5ADB22C43048430BD30B50023D8
:102BC00004248C40A3B2048C9C430484048C02FA39
:102BD00001F5ADB22C43048430BD70B5034600202E
:102BE00000241846183001258D40ACB21D8CA54339
:102BF0001D8409B1082909D100EB6100056825F0A1
:102C0000700505600568154305600EE00D1FC5F3EE
:102C10004E052844056825F4E045056005684FF633
:102C2000FF7606EA02263543056070BD21B10288B1
:102C300042F00202028004E002884FF6FD731A405F
:102C40000280704721B1028842F00402028004E051
:102C500002884FF6FB731A400280704721B18288C8
:102C600042F08002828004E082884FF67F731A402F
:102C70008280704702884FF6F7731A4002800288FC
:102C80000A430280704782884FF68F731A40828011
:102C900082880A438280704702894FF6F8731A408F
:102CA000028102890A430281704702894FF67F73CD
:102CB0001A40028102890A43028170478184704769
:102CC000818570478186704701877047818770478B
:102CD000A0F84010704702884FF6FF431A40028068
:102CE00002880A43028070470146888E7047014679
:102CF000088F70470146888F70470146B1F8400041
:102D000070470146888C70470146088D704702461F
:102D10000020138A0B400BB1012000E00020704717
:102D2000CA430282704730B50246002000230024C7
:102D3000158A05EA0103958905EA010413B10CB16E
:102D4000012000E0002030BDCA430282704700002D
:102D500010B50446FB48844209D101218803FEF7DF
:102D600019FF00214FF48040FEF714FF32E0F648CF
:102D7000844209D101214804FEF719FF00214FF4D4
:102D80000030FEF714FF25E0F048844209D101210C
:102D90008804FEF70CFF00214FF48020FEF707FFA8
:102DA00018E0EB48844209D10121C804FEF7FFFE78
:102DB00000214FF40020FEF7FAFE0BE0E5488442C4
:102DC00008D101210805FEF7F2FE00214FF4801022
:102DD000FEF7EDFE10BD2DE9F04786B005460E4624
:102DE0000024A24600BFA1460027B08900B100BF61
:102DF0002F462C8A4CF6FF700440F08804432C8246
:102E0000AC894EF6F3100440B088318908437189CB
:102E100008430443AC81AC8A4FF6FF400440B089BC
:102E20000443AC8201A8FEF72EFEC648874202D1B9
:102E3000DDF810A001E0DDF80CA0A88900F4004046
:102E400040B10AEBCA0000EB0A1031684900B0FB40
:102E5000F1F807E00AEBCA0000EB0A1031688900BC
:102E6000B0FBF1F86420B8FBF0F004012009642104
:102E700001FB1089A88900F4004040B1322000EB2A
:102E8000C900B0FBF1F000F00700044308E0322075
:102E900000EB09106421B0FBF1F000F00F000443D7
:102EA0002C8106B0BDE8F0874FF416510160002177
:102EB0008180C18001810C21418100218181704785
:102EC00010B502460020108A4FF2FF0318400B880D
:102ED0004C8823438C882343CC8823431843108297
:102EE00010BD0021018041808180C180704721B1E7
:102EF000828942F40052828104E082894DF6FF7398
:102F00001A4082817047F0B5034600240026002550
:102F1000002040F66A17B94200D100BF1846C1F33D
:102F2000421401F01F06012707FA06F5012C01D112
:102F30000C3004E0022C01D1103000E014301AB142
:102F400007682F43076002E00768AF430760F0BDE2
:102F50001AB1838A0B43838202E0838A8B43838284
:102F60007047028A4FF6F0731A400282028A0A43BF
:102F70000282704782894FF2FF731A4082818289F0
:102F80000A438281704721B1828942F00202828124
:102F900004E082894FF6FD731A4082817047028AED
:102FA0004FF6DF731A400282028A0A430282704798
:102FB00021B1028A42F48042028204E0028A4BF686
:102FC000FF731A4002827047C1F308028280704783
:102FD00001468888C0F308007047818941F00101EB
:102FE00081817047028BD2B20283028B42EA0122B6
:102FF00002837047028B02F47F420283028B0A43F2
:103000000283704721B1828A42F02002828204E06A
:10301000828A4FF6DF731A408282704721B1828A1A
:1030200042F01002828204E0828A4FF6EF731A4067
:103030008282704721B1828A42F00802828204E0D3
:10304000828A4FF6F7731A408282704721B18289D3
:1030500042F40042828103E08289C2F30E0282813F
:10306000704721B1828A42F40062828204E0828A3F
:103070004FF2FF731A4082827047828A4FF6FB73C9
:103080001A408282828A0A438282704721B1828AF0
:1030900042F00202828204E0828A4FF6FD731A40F7
:1030A0008282704702460020B1F5007F00D100BF48
:1030B00013880B400BB1012000E00020704701F4A1
:1030C0000072B2F5007F00D100BFCA430280704792
:1030D00070B50246002400230025002040F66A1641
:1030E000B14200D100BFC1F3421501F01F03012618
:1030F00006FA03F3012D02D19689334006E0022D32
:1031000002D1168A334001E0968A33400C12012620
:1031100006FA04F41688344013B10CB1012000E023
:10312000002070BD10B50022002340F66A14A142B1
:1031300000D100BF0A1201249440A3B2DC430480F2
:1031400010BD00000038014000440040004800402D
:10315000004C00400050004010B54FF44070FDF7A7
:1031600043F905F015F943F63F0141F2873005F0C8
:1031700039FB03F0DFFF03F071F804F015FF05F0F1
:1031800043F840F674620849084805F08DFB04F0E6
:10319000D3FD04F01BF904F0A5FE05F0BDFD01F020
:1031A0007BFC002010BD00000050002004380140CE
:1031B000704700BFFEE700BFFEE700BFFEE700BFAD
:1031C000FEE7704700F1080141604FF0FF31816078
:1031D00000F10801C1600161002101607047002118
:1031E0000161704742684A6093688B6093685960D8
:1031F0009160086103685B1C0360704710B502466C
:103200000B685C1C0CB9106907E002F1080000E0D3
:103210004068446824689C42FAD944684C604C6811
:10322000A160886041600A611468641C146010BD6C
:1032300001460A69D1E901309860D1E9010358607B
:103240005068884201D18868506000200861106889
:10325000401E10601068704770B505460E462C463B
:1032600054B900BF502080F31188BFF34F8FBFF3D4
:103270006F8F00BF00BFFEE702F051FFD4E90F12CD
:10328000206801FB020060600020A0632068A0604D
:10329000E06B401E226C216800FB0210E060FF2002
:1032A00084F8440084F845009EB9206908B90120DB
:1032B00000E00020A8B904F1100001F0B0FD80B1D9
:1032C0004FF08050F8490860BFF34F8FBFF36F8F06
:1032D00007E004F11000FFF775FF04F12400FFF789
:1032E00071FF02F043FF012070BD2DE9F041064659
:1032F0000D4617469846069C0DB9246000E02760ED
:10330000E663256401212046FFF7A6FF84F84C8080
:10331000BDE8F0812DE9F84305460E4690460DB113
:10332000012000E0002050B900BF502080F3118838
:10333000BFF34F8FBFF36F8F00BF00BFFEE70EB923
:10334000002701E005FB06F707F1500002F065FDDC
:10335000044644B104F1500943464A4631462846E2
:103360000094FFF7C2FF2046BDE8F88370B504461D
:1033700002F0D5FE94F9455010E0606A08B90120CA
:1033800000E0002038B904F1240001F048FD18B134
:1033900001F041FE00E003E0681E45B2002DECDCC8
:1033A00000BFFF2084F8450002F0E0FE02F0B7FE07
:1033B00094F9445010E0206908B9012000E0002091
:1033C00048B904F1100001F02AFD08B101F023FE14
:1033D000681E45B200E001E0002DECDC00BFFF20DC
:1033E00084F8440002F0C2FE70BD70B5054602F0DC
:1033F00096FEA86BE96B884201D1012400E000240D
:1034000002F0B4FE204670BD2DE9F04104460F469F
:1034100015464FF00008A66B206C40B9206860BBD1
:10342000606801F079FE80460020606025E07DB98B
:103430003946226CA06805F0FBFD216CA0680844A9
:10344000A060D4E90110884217D32068A06014E07E
:103450003946226CE06805F0EBFD216CE068401A0B
:10346000E0602168E068884203D2216C6068401AFD
:10347000E060022D01D106B1761E701CA0634046AB
:10348000BDE8F0812DE9FF4383B0064688461D461E
:103490004FF00009344654B900BF502080F3118822
:1034A000BFF34F8FBFF36F8F00BF00BFFEE7B8F1D0
:1034B000000F01D1206C08B9012000E0002050B9B4
:1034C00000BF502080F31188BFF34F8FBFF36F8F81
:1034D00000BF00BFFEE7022D02D1E06B012801D141
:1034E000012000E0002050B900BF502080F3118877
:1034F000BFF34F8FBFF36F8F00BF00BFFEE701F038
:10350000ADFD08B9059808B9012000E0002050B9C8
:1035100000BF502080F31188BFF34F8FBFF36F8F30
:1035200000BF00BFFEE700BF02F0F9FDA06BE16B3A
:10353000884201D3022D28D12A4641462046FFF772
:1035400063FF0746606A08B9012000E0002068B9FF
:1035500004F1240001F063FC88B14FF0805052491F
:103560000860BFF34F8FBFF36F8F08E03FB14FF09C
:1035700080504D490860BFF34F8FBFF36F8F02F04B
:10358000F5FD012007B0BDE8F083059818B902F0F9
:10359000EDFD0020F6E7B9F1000F04D101A801F01C
:1035A000CBFC4FF0010902F0E1FD00F04CFF02F00E
:1035B000B6FD94F94400401C10B9002084F8440082
:1035C00094F94500401C10B9002084F8450002F031
:1035D000CDFD05A901A801F0DCFCF0B92046FFF7FC
:1035E00004FFA0B104F11000059901F0AEFB2046E4
:1035F000FFF7BCFE00F079FE002895D14FF0805017
:1036000029490860BFF34F8FBFF36F8F8CE72046C7
:10361000FFF7ACFE00F069FE86E72046FFF7A6FE46
:1036200000F063FE0020ADE710B504464CB1002069
:1036300060602060E06000231A4619462046FFF7CC
:1036400021FF10BD2DE9F041044601260027224646
:1036500000210120FFF75EFE05462846FFF7E4FF44
:103660002846BDE8F08170B505462C4654B900BF28
:10367000502080F31188BFF34F8FBFF36F8F00BFCF
:1036800000BFFEE701F0E7FC616888420ED1E06808
:10369000401EE060E06828B900231A46194620461B
:1036A000FFF7F0FE012602E004ED00E000263046C0
:1036B00070BD70B5054602F032FDA86B08B9012453
:1036C00000E0002402F052FD204670BD70B50446B3
:1036D0000D46206C70B1216CE0680844E0606168C0
:1036E000E068884201D32068E0602846226CE168E7
:1036F00005F09EFC70BD2DE9FF4782B005460E46E1
:103700001F464FF0000A2C4654B900BF502080F3EA
:103710001188BFF34F8FBFF36F8F00BF00BFFEE76D
:103720000EB9206C08B9012000E0002050B900BF9C
:10373000502080F31188BFF34F8FBFF36F8F00BF0E
:1037400000BFFEE701F08AFC08B9049808B901201F
:1037500000E0002050B900BF502080F31188BFF373
:103760004F8FBFF36F8F00BF00BFFEE700BF02F0B7
:10377000D6FCD4F83890B9F1000F3DD0D4F80C80C5
:1037800031462046FFF7A2FFDFB9A9F10100A0638F
:10379000206810B901F0A5FD6060206908B901201A
:1037A00000E0002010BB04F1100001F038FBE8B18C
:1037B0004FF08050FE490860BFF34F8FBFF36F8F0B
:1037C00014E0C4F80C80606A08B9012000E0002011
:1037D00060B904F1240001F022FB38B14FF08050B1
:1037E000F3490860BFF34F8FBFF36F8F02F0BEFC49
:1037F000012006B0BDE8F087049818B902F0B6FCC5
:103800000020F6E7BAF1000F04D1684601F094FBFE
:103810004FF0010A02F0AAFC00F015FE02F07FFC56
:1038200094F94400401C10B9002084F8440094F935
:103830004500401C10B9002084F8450002F096FCB9
:1038400004A9684601F0A5FB40BB2046FFF731FF05
:10385000F0B1206830B902F062FC606801F00AFC47
:1038600002F084FC04F12400049901F06EFA204671
:10387000FFF77CFD00F039FD00287FF478AF4FF0B2
:103880008050CB490860BFF34F8FBFF36F8F6EE757
:103890002046FFF76BFD00F028FD68E72046FFF7A4
:1038A00065FD00F022FD2046FFF703FF0028EED063
:1038B00000209EE72DE9F04106460F46344654B9F4
:1038C00000BF502080F31188BFF34F8FBFF36F8F7D
:1038D00000BF00BFFEE701F0BEFB6168884204D173
:1038E000E068401CE06001250AE000233A461946E2
:1038F0002046FFF700FF054615B1E068401CE06078
:103900002846BDE8F08170B505460E460DB1012090
:1039100000E0002050B900BF502080F31188BFF3B1
:103920004F8FBFF36F8F00BF00BFFEE7AE4201D8DD
:10393000012000E0002050B900BF502080F3118822
:10394000BFF34F8FBFF36F8F00BF00BFFEE70222B0
:1039500000212846FFF7DEFC044604B1A66320469A
:1039600070BD2DE9F05F07468A4690461E463C46EC
:1039700054B900BF502080F31188BFF34F8FBFF3BD
:103980006F8F00BF00BFFEE7BAF1000F01D1206CBE
:1039900008B9012000E0002050B900BF502080F39A
:1039A0001188BFF34F8FBFF36F8F00BF00BFFEE7DB
:1039B000022E02D1E06B012801D1012000E000209D
:1039C00050B900BF502080F31188BFF34F8FBFF371
:1039D0006F8F00BF00BFFEE702F0FCFB00BF50216D
:1039E000EFF3118081F31188BFF34F8FBFF36F8F17
:1039F00000BF0546A06BE16B884201D3022E23D1A4
:103A000094F945B0324651462046FFF7FDFC0BF1D4
:103A1000010088B9606A08B9012000E0002080B97F
:103A200004F1240001F0FBF958B1B8F1000F08D0FF
:103A30000120C8F8000004E00BF1010040B284F856
:103A400045004FF0010901E04FF0000900BF85F388
:103A5000118800BF4846BDE8F09F2DE9F0470646B3
:103A60000F46344654B900BF502080F31188BFF38D
:103A70004F8FBFF36F8F00BF00BFFEE7206C08B908
:103A8000012000E0002050B900BF502080F31188D1
:103A9000BFF34F8FBFF36F8F00BF00BFFEE72068FB
:103AA00008B9606808B9012000E0002050B900BFE3
:103AB000502080F31188BFF34F8FBFF36F8F00BF8B
:103AC00000BFFEE702F086FB00BF5021EFF311803C
:103AD00081F31188BFF34F8FBFF36F8F00BF05468F
:103AE000D4F83890E06B48451ED994F945A009F107
:103AF0000100A0630AF1010070B9606A08B90120F1
:103B000000E0002068B904F1240001F088F940B118
:103B10003FB10120386004E00AF1010040B284F8AE
:103B200045004FF0010801E04FF0000800BF85F3A9
:103B3000118800BF4046BDE8F0872DE9F05F0646DA
:103B400089461746344654B900BF502080F3118887
:103B5000BFF34F8FBFF36F8F00BF00BFFEE7B9F118
:103B6000000F01D1206C08B9012000E0002050B9FD
:103B700000BF502080F31188BFF34F8FBFF36F8FCA
:103B800000BF00BFFEE702F025FB00BF5021EFF3AE
:103B9000118081F31188BFF34F8FBFF36F8F00BF88
:103BA0000546D4F838A0BAF1000F26D002E0000094
:103BB00004ED00E094F944B049462046FFF786FD45
:103BC000AAF10100A0630BF1010070B9206908B9E6
:103BD000012000E0002068B904F1100001F01FF995
:103BE00040B13FB10120386004E00BF1010040B268
:103BF00084F844004FF0010801E04FF0000800BFD6
:103C000085F3118800BF4046BDE8F09F2DE9F047DD
:103C100006468846344654B900BF502080F31188C8
:103C2000BFF34F8FBFF36F8F00BF00BFFEE7B8F148
:103C3000000F01D1206C08B9012000E0002050B92C
:103C400000BF502080F31188BFF34F8FBFF36F8FF9
:103C500000BF00BFFEE7206C08B1012000E000209B
:103C600050B900BF502080F31188BFF34F8FBFF3CE
:103C70006F8F00BF00BFFEE702F0ACFA00BF50211B
:103C8000EFF3118081F31188BFF34F8FBFF36F8F74
:103C900000BF0546A06B48B1D4F80C9041462046C1
:103CA000FFF714FDC4F80C90012700E0002700BFC7
:103CB00085F3118800BF3846BDE8F08770B504462B
:103CC00054B900BF502080F31188BFF34F8FBFF36A
:103CD0006F8F00BF00BFFEE702F021FAA56B02F074
:103CE00045FA284670BD70B50446254655B900BF53
:103CF000502080F31188BFF34F8FBFF36F8F00BF49
:103D000000BFFEE702F00BFAD5E90E10461A02F0EA
:103D10002DFA304670BD014651B900BF502282F3E2
:103D20001188BFF34F8FBFF36F8F00BF00BFFEE757
:103D3000886B7047014600200EE0524A02EBC00239
:103D400052688A4207D100224E4B43F8302003EBE1
:103D5000C0035A6002E0401C0A28EED300BF70473F
:103D600070B50446254655B900BF502080F3118830
:103D7000BFF34F8FBFF36F8F00BF00BFFEE7284632
:103D8000FFF7D8FF284602F0DCF870BD0146886CCA
:103D9000704781647047014691F84C0070470146B6
:103DA00051B900BF502282F31188BFF34F8FBFF388
:103DB0006F8F00BF00BFFEE78A6B0AB9012000E0E9
:103DC00000207047014651B900BF502282F311888C
:103DD000BFF34F8FBFF36F8F00BF00BFFEE78A6B4B
:103DE000CB6B9A4201D1012000E0002070470246CF
:103DF00000200BE0234B53F8303033B9214B43F80C
:103E0000301003EBC0035A6002E0401C0A28F1D3D3
:103E100000BF70470246002000210AE0194B03EB67
:103E2000C1035B68934203D1164B53F8310002E0A3
:103E3000491C0A29F2D300BF70472DE9F04105461D
:103E40000E4617462C4602F06AF994F94400401CCD
:103E500010B9002084F8440094F94500401C10B9C2
:103E6000002084F8450002F081F9A06B28B93A4699
:103E7000314604F1240000F0B4FF2046FFF776FA43
:103E8000BDE8F0810C01002010B5002407E004EB30
:103E90008401FC4A02EB8100FFF794F9641C202C9A
:103EA000F5D3F948FFF78EF9F848FFF78BF9F84892
:103EB000FFF788F9F748FFF785F9F748FFF782F928
:103EC000F148F6490860F148F549086010BD10B5A1
:103ED000044602F024F9F3480068401CF1490860E8
:103EE000F148006840B9F0480460084600680128BD
:103EF0000DD1FFF7C9FF0AE0EC48006838B9EA487D
:103F00000068C06AE16A884201D8E7480460E8486E
:103F10000068401CE649086008460068606494F840
:103F20002C1001208840E34909680843E1490860F2
:103F3000E16A01EB8101D34A02EB8100211DFFF709
:103F400051F902F013F9D948006868B1D648006801
:103F5000C06AE16A884207D24FF08050D6490860B3
:103F6000BFF34F8FBFF36F8F10BD2DE9F05F824617
:103F70000F4690469B460A9E0C9C4FEA8801A5225C
:103F8000206B05F067F8A8F10100216B01EB8009B7
:103F900029F0070909F0070008B9012000E0002016
:103FA00050B900BF502080F31188BFF34F8FBFF38B
:103FB0006F8F00BF00BFFEE7002507E0795D04F1C9
:103FC00034004155785D00B902E06D1C102DF5D329
:103FD00000BF002143200155202E00D31F26E6629A
:103FE000E66400202065201DFFF7F9F804F11800B1
:103FF000FFF7F5F82461C6F12000A061646200209B
:10400000606584F858005A465146484602F010F858
:1040100020600B9808B10B980460BDE8F09F2DE973
:10402000FF4F85B0804689461746DDE912ABB800E0
:1040300001F0F3FE064656B15C2001F0EEFE0446A8
:104040000CB1266304E0304601F07BFF00E0002461
:104050007CB10020CDE900ABCDE902403A464946AB
:104060004046089BFFF781FF2046FFF730FF012500
:1040700001E04FF0FF35284609B0BDE8F08F8749D1
:104080000968096809B9012100E0002121B14FF058
:10409000FF318A4A116006E080490968C968C8682A
:1040A000864A41681160704710B50446206B01F0E4
:1040B00048FF204601F045FF10BD70B5054602F0EF
:1040C0002EF815B97848006800E028460446201DFF
:1040D000FFF7AEF878B9E06A00EB8000694951F863
:1040E000200040B994F82C100120884071490968DB
:1040F000814370480160A06A18B104F11800FFF70D
:1041000097F86B480068401C694908606648006879
:10411000844209D1211D5F48FFF764F868480068B0
:10412000401C6749086009E05E480068401E5D4920
:1041300008602046FFF7B8FFFFF7A1FF02F016F86E
:104140005A480068E8B158480068844219D15D486F
:10415000006808B9012000E0002050B900BF5020DD
:1041600080F31188BFF34F8FBFF36F8F00BF00BF85
:10417000FEE74FF0805050490860BFF34F8FBFF308
:104180006F8F70BD2DE9F0414FF000084D48006879
:10419000002876D14C480068451C4B48056015BB8B
:1041A0003E480068006808B9012000E0002050B9CE
:1041B00000BF502080F31188BFF34F8FBFF36F8F84
:1041C00000BF00BFFEE7354807683548006833493F
:1041D0000860334807603D480068401C3B49086060
:1041E000FFF74DFF00BF3548006885423CD300BF54
:1041F0002A480068006808B9012000E0002020B1CA
:104200004FF0FF302D4908602DE024480068C06859
:10421000C4686668B54202D22848066023E0201DC3
:10422000FFF706F8A06A18B104F11800FFF700F8CC
:1042300094F82C10012088401E49096808431D4944
:104240000860E16A01EB81010E4A02EB8100211D49
:10425000FEF7C8FF1449E06A0968C96A8842C7D3F3
:104260004FF00108C4E700BF0F480068C06A00EBC8
:104270008000044951F82000012801D94FF00108BD
:104280002BE025E05C010020DC030020F00300208F
:1042900004040020180400202C0400202C0000201E
:1042A00030000020380000202800002044000020BA
:1042B000540000204000002004ED00E058000020E1
:1042C00034000020600000203C000020500000204E
:1042D000FE480068401CFD490860FD48006808B1C0
:1042E0004FF001084046BDE8F08170B5002400267B
:1042F000F848006850B900BF502080F31188BFF320
:104300004F8FBFF36F8F00BF00BFFEE701F007FFC5
:10431000F0480068401EEF49086008460068002821
:104320004FD1ED48006800284BD024E0EB48C0682E
:10433000C46804F11800FEF77BFF201DFEF778FF2C
:1043400094F82C1001208840E54909680843E449A5
:104350000860E16A01EB8101E24A02EB8100211D64
:10436000FEF740FFE049E06A0968C96A884202D363
:104370000120D7490860D948006808B9012000E049
:1043800000200028D2D00CB1FFF779FECF48056895
:1043900065B100BFFFF7F6FE10B10120CC490860FF
:1043A0006D1E002DF6D10020C8490860C84800687D
:1043B00038B101263007CD490860BFF34F8FBFF3F6
:1043C0006F8F01F0D3FE304670BD2DE9F0410546F8
:1043D0000E46C7480768C4480068001DFEF728FF5E
:1043E00050B9C148006890F82C1001208840BC49A1
:1043F00009688143BA480160681C38B936B1BA48C7
:104400000168091DBB48FEF7EDFE1AE07C19B648AD
:1044100000684460BC4207D2B3480168091DB64831
:104420000068FEF7EBFE0CE0AF480168091DB348D9
:104430000068FEF7E3FEB2480068844201D2B0484B
:104440000460BDE8F081A3480068401CA1490860F1
:1044500070472DE9F04704460F464FF0000954B964
:1044600000BF502080F31188BFF34F8FBFF36F8FD1
:1044700000BF00BFFEE70FB1012000E0002050B9EF
:1044800000BF502080F31188BFF34F8FBFF36F8FB1
:1044900000BF00BFFEE78F48006808B9012000E0B8
:1044A000002050B900BF502080F31188BFF34F8F18
:1044B000BFF36F8F00BF00BFFEE7FFF7C4FF8C485C
:1044C00006682068C5192068B04207D92068A8424C
:1044D0000BD9B54209D94FF0010906E02068A8427E
:1044E00001D8B54201D94FF001092560B9F1000F9B
:1044F00003D0A81B0021FFF768FFFFF7F6FE8046F8
:10450000B8F1000F07D14FF0805078490860BFF331
:104510004F8FBFF36F8FBDE8F08770B5044600255D
:10452000D4B16C48006808B9012000E0002050B9FF
:1045300000BF502080F31188BFF34F8FBFF36F8F00
:1045400000BF00BFFEE7FFF77EFF00212046FFF718
:104550003CFFFFF7CAFE05463DB94FF08050634966
:104560000860BFF34F8FBFF36F8F70BD2DE9F0412F
:1045700007463E4656B900BF502080F31188BFF36E
:104580004F8FBFF36F8F00BF00BFFEE75648006834
:10459000864201D100241EE001F0C1FD756901F0E1
:1045A000E5FD56480068854203D0534800688542BF
:1045B00001D102240FE04F48854205D1B06A08B905
:1045C000032408E0022406E04E48854200D00DB9DD
:1045D000042400E001242046BDE8F08170B50446C3
:1045E00001F09DFD14B94048006800E020460646F1
:1045F000F56A01F0BBFD284670BD2DE9F041054686
:1046000001F0E8FD00BF5021EFF3118081F3118824
:10461000BFF34F8FBFF36F8F00BF044615B9324809
:10462000006800E028460746FE6A00BF84F3118850
:1046300000BF3046BDE8F0812DE9F04780460D46C9
:104640004FF00009202D01D2012000E0002050B9D8
:1046500000BF502080F31188BFF34F8FBFF36F8FDF
:1046600000BF00BFFEE7202D00D31F2501F057FD3E
:10467000B8F1000F02D11C48006800E04046044633
:10468000E66CAE4275D0B5420BD91748006884423B
:104690000DD015480068C06AA84208D84FF001093B
:1046A00005E011480068844201D14FF00109E76A32
:1046B000E16AE06C884200D1E562E564A06900F03F
:1046C000004010B9C5F12000A0611DE048000020A5
:1046D0004C0000206000002038000020040400206E
:1046E000400000205C0100202800002004ED00E0D4
:1046F0003C0000202C040020300000202C00002072
:10470000580000201804002007EB8701F74A02EB4D
:1047100081016069884201D1012000E00020E0B100
:10472000201DFEF785FD30B90120B840F049096829
:104730008143EF48016094F82C1001208840EC4937
:1047400009680843EA490860E16A01EB8101E74A28
:1047500002EB8100211DFEF745FDB9F1000F07D0E6
:104760004FF08050E3490860BFF34F8FBFF36F8F66
:1047700000BF01F0FBFCBDE8F087DF48006818B11E
:104780000120DE49086032E00020DC490860D8489A
:104790000068B0FA80F0C0F11F0101EB8100D34A3C
:1047A00052F8200008B1012000E0002050B900BFFD
:1047B000502080F31188BFF34F8FBFF36F8F00BF7E
:1047C00000BFFEE701EB8102C84B03EB82004268A9
:1047D0005268426000F108024368934202D1426885
:1047E000526842604268D268C54B1A6000BF704789
:1047F00070B5054601F093FC15B9C148006800E0AA
:1048000028460446201DFEF713FD78B9E06A00EB48
:104810008000B64951F8200040B994F82C100120CE
:104820008840B34909688143B1480160A06A18B162
:1048300004F11800FEF7FCFC211DB248FEF7D2FC83
:1048400001F094FCB048006828B101F068FCFFF763
:1048500016FC01F08BFCAA480068844229D1AA48C2
:104860000068D0B1A448006808B9012000E0002029
:1048700050B900BF502080F31188BFF34F8FBFF3B2
:104880006F8F00BF00BFFEE74FF08050994908606E
:10489000BFF34F8FBFF36F8F0BE09A4800689B49BF
:1048A0000968884203D100209549086001E0FFF7BC
:1048B00064FF70BD10B502460020114652B900BF1A
:1048C000502383F31188BFF34F8FBFF36F8F00BF67
:1048D00000BFFEE78B4C4B69A34201D1012300E0EE
:1048E000002373B18A4C8B6AA34201D1012300E0FB
:1048F000002333B98B6A0BB9012300E0002303B115
:10490000012010BD70B505462C4655B900BF50209A
:1049100080F31188BFF34F8FBFF36F8F00BF00BFCD
:10492000FEE774B37648006884422AD001F0F7FBB2
:104930002046FFF7BFFF10B3201DFEF779FC94F867
:104940002C10012088406A490968084368490860BA
:10495000E16A01EB8101654A02EB8100211DFEF74E
:1049600041FC6749E06A0968C96A884207D34FF089
:10497000805060490860BFF34F8FBFF36F8F01F025
:10498000F5FB70BD2DE9F04106460027344656B9C7
:1049900000BF502080F31188BFF34F8FBFF36F8F9C
:1049A00000BF00BFFEE701F015FC00BF5021EFF390
:1049B000118081F31188BFF34F8FBFF36F8F00BF5A
:1049C00005462046FFF776FF20B34B480068E0B964
:1049D0004B49E06A0968C96A884200D30127201D53
:1049E000FEF726FC94F82C10012088404049096805
:1049F00008433F490860E16A01EB81013B4A02EB51
:104A00008100211DFEF7EEFB04E004F1180140488F
:104A1000FEF7E8FB00BF85F3118800BF3846BDE80C
:104A2000F08170B523E0FFF70EFD3A48006808B941
:104A3000012000E000200546FFF757FCBDB901F05A
:104A40006EFB3448C068C468201DFEF7F1FB2F4898
:104A50000068401E2D4908602F480068401E2E49FE
:104A6000086001F083FB2046FFF71EFB00BF2A48C9
:104A700000680028D7D170BD00BFFFF7D2FF1B48E8
:104A800000680128F9D94FF080501A490860BFF337
:104A90004F8FBFF36F8FF0E71CB5204800210B4606
:104AA0008022CDE900101EA11F48FFF7B8FA044686
:104AB000012C02D101F044F80446012C3AD100BF88
:104AC000502080F31188BFF34F8FBFF36F8F00BF6B
:104AD0004FF0FF301549086001200B4908600020A5
:104AE0001349086001F0C0FA35E000005C010020C5
:104AF0004000002004ED00E0600000204C00002099
:104B0000280000202C040020440000203800002051
:104B10000404002018040020340000205C00002061
:104B200049444C4500000000794A00085800002024
:104B30003C000020601C08B1012000E0002050B9BA
:104B400000BF502080F31188BFF34F8FBFF36F8FEA
:104B500000BF00BFFEE71CBD10B500BF502080F3B2
:104B60001188BFF34F8FBFF36F8F00BF0020F8494C
:104B7000086001F0BFFA10BDF6490868704770B5CB
:104B800001F028FB0025F3480468204670BDF24878
:104B900000687047014611B9F048006800E0084617
:104BA000024652B900BF502080F31188BFF34F8FE7
:104BB000BFF36F8F00BF00BFFEE702F13400704704
:104BC0000246002101E0521C491C1078A528FAD0A9
:104BD000890888B270472DE9F04107460C46904697
:104BE0001E4617B9DD48006800E0384605462560D6
:104BF00005F134006060E86A2061286BE061686C50
:104C0000A060207B032807D1FFF71DFCA86A08B12C
:104C100002202073FFF769FBE86C60610020A0614F
:104C2000052E01D0267303E03846FFF79FFC207362
:104C3000B8F1000F04D0286BFFF7C2FF208401E019
:104C400000202084BDE8F0812DE9F04707460C469E
:104C500090460026206848B3204641684968416074
:104C600000F1080142688A4202D141684968416006
:104C70004168D1F80C9000BF204641684968416006
:104C800000F1080142688A4202D1416849684160E6
:104C90004168CD6806EBC60007EB80014346012260
:104CA0002846FFF798FF761C4D45E5D13046BDE814
:104CB000F0872DE9F0410546884616460024202756
:104CC000FFF7C1FBA4480068804539D300BF7F1EB1
:104CD00007EB8702A24B03EB820104EBC40205EB56
:104CE00082000122FFF7B0FF0444002FEFD104EB54
:104CF000C40105EB810002229A490968FFF7A4FF6D
:104D0000044404EBC40105EB8100022296490968C2
:104D1000FFF79AFF044404EBC40105EB8100042271
:104D20009249FFF791FF044404EBC40105EB8100B5
:104D300003228F49FFF788FF04440EB10020306042
:104D4000FFF7D3FA2046BDE8F08170B504460D4662
:104D500054B900BF502080F31188BFF34F8FBFF3C9
:104D60006F8F00BF00BFFEE77C4801681831204606
:104D7000FEF744FA01212846FFF727FB70BD70B506
:104D800004460D46164654B900BF502080F31188E2
:104D9000BFF34F8FBFF36F8F00BF00BFFEE77548B3
:104DA000006808B1012000E0002050B900BF502089
:104DB00080F31188BFF34F8FBFF36F8F00BF00BF29
:104DC000FEE745F00040654909688861634801686D
:104DD00018312046FEF706FA01213046FFF7F5FAB2
:104DE00070BD70B505460E46144655B900BF50203B
:104DF00080F31188BFF34F8FBFF36F8F00BF00BFE9
:104E0000FEE75648016818312846FEF7EBF90CB169
:104E10004FF0FF3621463046FFF7D7FA70BD70B528
:104E20000646F068C46854B900BF502080F311886A
:104E3000BFF34F8FBFF36F8F00BF00BFFEE704F1DA
:104E40001800FEF7F5F94B480068A8B9201DFEF7D9
:104E5000EFF994F82C10012088404749096808436D
:104E600045490860E16A01EB81013D4A02EB81009E
:104E7000211DFEF7B7F904E004F118013F48FEF7E1
:104E8000B1F93649E06A0968C96A884204D901253E
:104E900001203B49086000E00025284670BD2DE94F
:104EA000F04105460F463348006808B1012000E094
:104EB000002050B900BF502080F31188BFF34F8FFE
:104EC000BFF36F8F00BF00BFFEE747F000402860D0
:104ED000EC6854B900BF502080F31188BFF34F8FA6
:104EE000BFF36F8F00BF00BFFEE72846FEF7A0F9B3
:104EF000201DFEF79DF994F82C10012088401E49D2
:104F0000096808431C490860E16A01EB8101144A01
:104F100002EB8100211DFEF765F91049E06A09687E
:104F2000C96A884204D9012601201549086000E0B9
:104F300000263046BDE8F08120BB00BF502181F340
:104F40001188BFF34F8FBFF36F8F00BF00BFFEE725
:104F5000440000203C0000203800002028000020F1
:104F60005C0100202C0000203000002018040020EC
:104F70002C040020600000204000002004040020D9
:104F80004C000020F84909680160F849096841604F
:104F9000704770B504460D4654B900BF502080F3E9
:104FA0001188BFF34F8FBFF36F8F00BF00BFFEE7C5
:104FB00055B900BF502080F31188BFF34F8FBFF366
:104FC0006F8F00BF00BFFEE701F0A9F8E748036854
:104FD0002868401C08B9002619E0E34920680968E0
:104FE000884204D06068984201D801260FE06068CA
:104FF000181A2968884209D228686168591A401A23
:1050000028602046FFF798FF002600E0012601F007
:10501000ADF8304670BD0120D549086070470146A3
:1050200011B10A46906C00E00020704708B10246BA
:10503000916470472DE9F041044614B9CD480068E9
:1050400000E0204607463D6B2846FFF7B9FD0646BF
:105050003046BDE8F081C74908687047C64909680D
:1050600009B9012005E0C549096809B9022000E035
:105070000020704770B505462C46002D4BD0BD4929
:10508000E06A0968C96A884245D2A06900F0004018
:1050900028B9B8480068C06AC0F12000A061E16A80
:1050A00001EB8101B64A02EB81016069884201D1BE
:1050B000012000E0002050B3201DFEF7B9F878B9B8
:1050C000E06A00EB8000AE4951F8200040B994F846
:1050D0002C1001208840AB4909688143A948016030
:1050E000A4480068C06AE06294F82C10012088404F
:1050F000A44909680843A3490860E16A01EB8101FA
:105100009F4A02EB8100211DFEF76CF803E09948ED
:105110000068C06AE06270BD70B505462C46002686
:10512000002D55D093480068844201D1012000E051
:10513000002050B900BF502080F31188BFF34F8F7B
:10514000BFF36F8F00BF00BFFEE7206D50B900BFF7
:10515000502080F31188BFF34F8FBFF36F8F00BFD4
:1051600000BFFEE7206D401E2065E16CE06A8842CA
:105170002ED0206D60BB201DFEF75AF878B9E06A8A
:1051800000EB80007E4951F8200040B994F82C10C3
:10519000012088407B49096881437A480160E06CBE
:1051A000E062E06AC0F12000A06194F82C100120B8
:1051B000884074490968084372490860E16A01EB54
:1051C00081016F4A02EB8100211DFEF70BF80126D9
:1051D000304670BD70B505460E463146284603F090
:1051E00052FF284603F048FF044602E020202855DD
:1051F000641C0F2CFAD300202855281970BD7FB5E8
:105200000546002028706048006803905E490968E0
:1052100001EBC101880000F000FE0446002C53D0D1
:10522000002220460399FFF744FD039000200290DE
:1052300043E0029800EBC00004EB8000007B0128F3
:1052400006D0022806D0032806D0042808D105E09D
:10525000522607E0422605E0532603E0442601E0FB
:10526000002600BF00BF029800EBC00004EB8000E6
:1052700041682846FFF7AEFF0546029800EBC000E4
:1052800004EB80008068029901EBC10104EB81010D
:10529000098CCDE90010029800EBC00004EB8000FF
:1052A00032463AA10369284604F078FB284603F009
:1052B000E3FE05440298401C0290DDE902018842A9
:1052C000B7D3204600F03DFE7FBD2A4909688869B2
:1052D00028490968C96AC1F12001264A126891610A
:1052E00070472448006830B12249096801F1500034
:1052F000096D491C01601F480068704770B506467B
:105300000D4600F00CFF1B480068406D88B9012075
:105310001849096881F858005DB101212846FFF756
:1053200054F84FF080501D490860BFF34F8FBFF312
:105330006F8F00F01BFF00F0F2FE0E480068446D16
:105340004CB126B100200B490968486503E0601E96
:1053500008490968486500200649096881F858002D
:1053600000F004FF204670BD500000203C000020EB
:105370004C00002028000020440000206000002095
:105380005C0100204000002038000020092563094E
:1053900025750925750925750D0A000004ED00E045
:1053A0002DE9F0410746884614461D4600F0B7FE39
:1053B000EA48006890F85800022818D0E7490968C0
:1053C00001F15400496DB94301600120E3490968C6
:1053D00081F858005DB101212846FEF7F6FF4FF035
:1053E0008050DF490860BFF34F8FBFF36F8F00F02D
:1053F000BDFE00F094FE1CB1D8480068406D2060EE
:10540000D648006890F85800012801D1002608E02D
:10541000D249096801F15400496D21EA080101608F
:1054200001260020CD49096881F8580000F09EFE51
:105430003046BDE8F0812DE9F04706460D46174697
:1054400098464FF0010A56B900BF502080F31188EA
:10545000BFF34F8FBFF36F8F00BF00BFFEE734462F
:1054600000F05DFEB8F1000F02D0606DC8F80000DA
:1054700094F85890022084F85800052F17D2DFE8DE
:1054800007F01503070B0D00606D284360650EE003
:10549000606D401C60650AE0656508E0B9F1020FC7
:1054A00001D0656501E04FF0000A00E000BF00BFD9
:1054B000B9F1010F33D1201DFDF7BAFE94F82C107D
:1054C00001208840A74909680843A6490860E16AA5
:1054D00001EB8101A44A02EB8100211DFDF782FE50
:1054E000A06A08B9012000E0002050B900BF502098
:1054F00080F31188BFF34F8FBFF36F8F00BF00BFE2
:10550000FEE79649E06A0968C96A884207D94FF000
:10551000805093490860BFF34F8FBFF36F8F00F047
:1055200025FE5046BDE8F0872DE9F84F07460E46A8
:1055300090469946DDF828B00120009057B900BF89
:10554000502080F31188BFF34F8FBFF36F8F00BFE0
:1055500000BFFEE700F03EFE3C4600BF5021EFF3E7
:10556000118081F31188BFF34F8FBFF36F8F00BF9E
:105570000546B9F1000F02D0606DC9F8000094F83B
:1055800058A0022084F85800B8F1050F17D2DFE8C0
:1055900008F01503070B0D00606D304360650EE0E9
:1055A000606D401C60650AE0666508E0BAF1020FB4
:1055B00001D0666501E00020009000E000BF00BF60
:1055C000BAF1010F3ED1A06A08B9012000E0002025
:1055D00050B900BF502080F31188BFF34F8FBFF345
:1055E0006F8F00BF00BFFEE760480068A8B9201DAC
:1055F000FDF71EFE94F82C100120884059490968D7
:10560000084358490860E16A01EB8101564A02EB00
:105610008100211DFDF7E6FD04E004F11801544866
:10562000FDF7E0FD4D49E06A0968C96A884209D979
:10563000BBF1000F03D00120CBF8000002E00120F5
:105640004C49086000BF85F3118800BF0098BDE891
:10565000F88F2DE9F04105460F4655B900BF50209F
:1056600080F31188BFF34F8FBFF36F8F00BF00BF70
:10567000FEE700F0AFFD2C4600BF5021EFF3118094
:1056800081F31188BFF34F8FBFF36F8F00BF0646C2
:1056900094F85880022084F85800606D401C6065C2
:1056A000B8F1010F3BD1A06A08B9012000E0002049
:1056B00050B900BF502080F31188BFF34F8FBFF364
:1056C0006F8F00BF00BFFEE728480068A8B9201D03
:1056D000FDF7AEFD94F82C1001208840214909689F
:1056E000084320490860E16A01EB81011E4A02EB90
:1056F0008100211DFDF776FD04E004F118011C482E
:10570000FDF770FD1549E06A0968C96A884206D943
:1057100017B10120386002E001201649086000BF7F
:1057200086F3118800BFBDE8F08170B5054615B954
:105730000A48006800E02846064600F0F0FC96F8AB
:105740005800022804D1002086F85800012400E007
:10575000002400F00BFD204670BD00002800002052
:1057600004ED00E0400000205C010020600000200B
:10577000040400204C0000202DE9F04104460D46B1
:1057800016461F464FF0000865602461B5420CD8EC
:10579000F01BA169884202D34FF0010811E0211DDE
:1057A000F7480068FDF72AFD0BE0BE4204D2BD4277
:1057B00002D34FF0010804E0211DF2480068FDF714
:1057C0001DFD4046BDE8F0812DE9FE4304460D462F
:1057D00016461F46DDF828804FF0000954B900BF77
:1057E000502080F31188BFF34F8FBFF36F8F00BF3E
:1057F00000BFFEE7E448006810B3009501960294EC
:10580000062D15DAFFF72AFC022808D100234246AC
:105810006946DD480068FDF735FE814610E000234B
:105820001A466946D8480068FDF72CFE814607E015
:1058300000233A466946D4480068FEF792F881464C
:105840004846BDE8FE832DE9F84332E0CD480068C4
:10585000C0680568CB480068C068C468201DFDF7B3
:10586000E7FC2046616A8847E069012821D1A069E8
:105870004619AE4207D966602461211DC1480068FF
:10588000FDF7BCFC15E0002003462A4601460090C7
:105890002046FFF799FF074657B900BF502080F315
:1058A0001188BFF34F8FBFF36F8F00BF00BFFEE7BC
:1058B00000BFB4480068006808B9012000E000207B
:1058C0000028C3D0AF48D0F80080AD480068AD498B
:1058D0000860AB48C0F80080BDE8F88370B50446A6
:1058E000FFF74AF90546A9480068854204D2FFF748
:1058F000AAFF0120206001E000202060A34805608D
:10590000284670BD70B586B06AE00398002867DB52
:10591000059C606908B9012000E0002010B9201D35
:10592000FDF786FC02A8FFF7D9FF054603980A2871
:1059300054D2DFE800F009050731334F060832344E
:1059400000BF00BF00BF00BF0498A26981180346D2
:105950002A462046FFF710FFE8B12046616A8847D3
:10596000E069012817D1002000900498A16942182D
:10597000002319462046FFF727FF064656B900BF09
:10598000502080F31188BFF34F8FBFF36F8F00BF9C
:1059900000BFFEE700BF22E000BF20E000BF049888
:1059A000A061A06908B1012000E0002050B900BF4B
:1059B000502080F31188BFF34F8FBFF36F8F00BF6C
:1059C00000BFFEE7A06941192B462A462046FFF793
:1059D000D3FE04E0204600F0B4FA00E000BF00BFB0
:1059E00000231A4603A968480068FDF784FE0028D2
:1059F0008BD106B070BDF8B505460F46614800680A
:105A0000C068C468201DFDF713FCE06901281DD1A2
:105A1000A06941192B463A462046FFF7ADFEA8B1D2
:105A2000002003462A46014600902046FFF7CCFEA0
:105A3000064656B900BF502080F31188BFF34F8F40
:105A4000BFF36F8F00BF00BFFEE700BF2046616A53
:105A50008847F8BDF8B505460C46FEF7F4FC6846E5
:105A6000FFF73CFF0646009820BB44B9B54206D874
:105A7000FEF73BFC31462846FFF7BDFF1CE03CB17A
:105A80003F480068006808B9012000E00020044693
:105A9000A91B22463C480068FEF7CFF9FEF725FC1B
:105AA00050B94FF080503A490860BFF34F8FBFF3B1
:105AB0006F8F01E0FEF719FCF8BD0146314A12680C
:105AC00012680AB9012200E000220A600A6822B9BD
:105AD0002C4A1268D268106800E00020704708B5B0
